{
    "contractName": "attendance",
    "abi": [
        {
            "inputs": [
                {
                    "internalType": "uint256",
                    "name": "_date",
                    "type": "uint256"
                },
                {
                    "internalType": "string",
                    "name": "_courseId",
                    "type": "string"
                }
            ],
            "stateMutability": "nonpayable",
            "type": "constructor"
        },
        {
            "inputs": [
                {
                    "internalType": "uint256",
                    "name": "",
                    "type": "uint256"
                }
            ],
            "name": "attendance_record",
            "outputs": [
                {
                    "internalType": "uint256",
                    "name": "",
                    "type": "uint256"
                }
            ],
            "stateMutability": "view",
            "type": "function"
        },
        {
            "inputs": [
                {
                    "internalType": "uint256",
                    "name": "",
                    "type": "uint256"
                }
            ],
            "name": "attendee_list",
            "outputs": [
                {
                    "internalType": "address",
                    "name": "",
                    "type": "address"
                }
            ],
            "stateMutability": "view",
            "type": "function"
        },
        {
            "inputs": [],
            "name": "check_attendance",
            "outputs": [
                {
                    "internalType": "uint256",
                    "name": "",
                    "type": "uint256"
                }
            ],
            "stateMutability": "view",
            "type": "function"
        },
        {
            "inputs": [
                {
                    "internalType": "uint256",
                    "name": "_id",
                    "type": "uint256"
                }
            ],
            "name": "check_attendance2",
            "outputs": [
                {
                    "internalType": "bool",
                    "name": "",
                    "type": "bool"
                }
            ],
            "stateMutability": "view",
            "type": "function"
        },
        {
            "inputs": [],
            "name": "courseId",
            "outputs": [
                {
                    "internalType": "string",
                    "name": "",
                    "type": "string"
                }
            ],
            "stateMutability": "view",
            "type": "function"
        },
        {
            "inputs": [],
            "name": "date",
            "outputs": [
                {
                    "internalType": "uint256",
                    "name": "",
                    "type": "uint256"
                }
            ],
            "stateMutability": "view",
            "type": "function"
        },
        {
            "inputs": [],
            "name": "disable",
            "outputs": [],
            "stateMutability": "nonpayable",
            "type": "function"
        },
        {
            "inputs": [],
            "name": "enable",
            "outputs": [],
            "stateMutability": "nonpayable",
            "type": "function"
        },
        {
            "inputs": [],
            "name": "enabled",
            "outputs": [
                {
                    "internalType": "bool",
                    "name": "",
                    "type": "bool"
                }
            ],
            "stateMutability": "view",
            "type": "function"
        },
        {
            "inputs": [
                {
                    "internalType": "uint256",
                    "name": "_id",
                    "type": "uint256"
                }
            ],
            "name": "give_attendance",
            "outputs": [],
            "stateMutability": "nonpayable",
            "type": "function"
        },
        {
            "inputs": [],
            "name": "instructor",
            "outputs": [
                {
                    "internalType": "address",
                    "name": "",
                    "type": "address"
                }
            ],
            "stateMutability": "view",
            "type": "function"
        },
        {
            "inputs": [],
            "name": "total_attendance",
            "outputs": [
                {
                    "internalType": "uint256",
                    "name": "",
                    "type": "uint256"
                }
            ],
            "stateMutability": "view",
            "type": "function"
        }
    ],
    "bytecode": "608060405234801561001057600080fd5b506040516200095e3803806200095e8339810160408190526100319161006f565b600080546001600160a01b03191633179055600161004f82826101cc565b505060025561028b565b634e487b7160e01b600052604160045260246000fd5b6000806040838503121561008257600080fd5b8251602080850151919350906001600160401b03808211156100a357600080fd5b818601915086601f8301126100b757600080fd5b8151818111156100c9576100c9610059565b604051601f8201601f19908116603f011681019083821181831017156100f1576100f1610059565b81604052828152898684870101111561010957600080fd5b600093505b8284101561012b578484018601518185018701529285019261010e565b60008684830101528096505050505050509250929050565b600181811c9082168061015757607f821691505b60208210810361017757634e487b7160e01b600052602260045260246000fd5b50919050565b601f8211156101c757600081815260208120601f850160051c810160208610156101a45750805b601f850160051c820191505b818110156101c3578281556001016101b0565b5050505b505050565b81516001600160401b038111156101e5576101e5610059565b6101f9816101f38454610143565b8461017d565b602080601f83116001811461022e57600084156102165750858301515b600019600386901b1c1916600185901b1785556101c3565b600085815260208120601f198616915b8281101561025d5788860151825594840194600190910190840161023e565b508582101561027b5787850151600019600388901b60f8161c191681555b5050505050600190811b01905550565b6106c3806200029b6000396000f3fe608060405234801561001057600080fd5b50600436106100b45760003560e01c806371ae413d1161007157806371ae413d146101375780638924b04214610162578063a3907d7114610175578063ce6a43a81461017d578063f065081e14610190578063fb19ae711461019857600080fd5b80630a2cdcdf146100b9578063238dafe0146100e15780632f2770db146100ee578063323046b1146100f857806367c784e11461010f5780636e0f634b14610122575b600080fd5b6100cc6100c7366004610546565b6101a0565b60405190151581526020015b60405180910390f35b6003546100cc9060ff1681565b6100f6610235565b005b61010160025481565b6040519081526020016100d8565b6100f661011d366004610546565b61026b565b61012a6103a5565b6040516100d8919061055f565b60005461014a906001600160a01b031681565b6040516001600160a01b0390911681526020016100d8565b61014a610170366004610546565b610433565b6100f661045d565b61010161018b366004610546565b610496565b6101016104b7565b600454610101565b600080546001600160a01b031633146101d45760405162461bcd60e51b81526004016101cb906105ad565b60405180910390fd5b60005b6004546101e69060019061060b565b81101561022c57826004828154811061020157610201610624565b90600052602060002001540361021a5750600192915050565b806102248161063a565b9150506101d7565b50600092915050565b6000546001600160a01b0316331461025f5760405162461bcd60e51b81526004016101cb906105ad565b6003805460ff19169055565b6000805b60055461027e9060019061060b565b8110156102d357336001600160a01b0316600582815481106102a2576102a2610624565b6000918252602090912001546001600160a01b0316036102c157600191505b806102cb8161063a565b91505061026f565b5060035460ff1615156001036103a15780156103315760405162461bcd60e51b815260206004820152601e60248201527f43616e6e6f74206769766520617474656e64616e636520616e796d6f7265000060448201526064016101cb565b6004805460018181019092557f8a35acfbc15ff81a39ae7d344fd709f28e8600b4aa8c65c6b64bfe7fe36bd19b018390556005805491820181556000527f036b6384b5eca791c62761152d0c79bb0604c104a5fb6f4eb0703f3154bb3db00180546001600160a01b031916331790555b5050565b600180546103b290610653565b80601f01602080910402602001604051908101604052809291908181526020018280546103de90610653565b801561042b5780601f106104005761010080835404028352916020019161042b565b820191906000526020600020905b81548152906001019060200180831161040e57829003601f168201915b505050505081565b6005818154811061044357600080fd5b6000918252602090912001546001600160a01b0316905081565b6000546001600160a01b031633146104875760405162461bcd60e51b81526004016101cb906105ad565b6003805460ff19166001179055565b600481815481106104a657600080fd5b600091825260209091200154905081565b6000805b6005546104ca9060019061060b565b81101561053e57336001600160a01b0316600582815481106104ee576104ee610624565b6000918252602090912001546001600160a01b03160361052c576004818154811061051b5761051b610624565b906000526020600020015491505090565b806105368161063a565b9150506104bb565b506001905090565b60006020828403121561055857600080fd5b5035919050565b600060208083528351808285015260005b8181101561058c57858101830151858201604001528201610570565b506000604082860101526040601f19601f8301168501019250505092915050565b60208082526028908201527f4f6e6c7920696e7374727563746f722063616e20696e766f6b65207468697320604082015267333ab731ba34b7b760c11b606082015260800190565b634e487b7160e01b600052601160045260246000fd5b8181038181111561061e5761061e6105f5565b92915050565b634e487b7160e01b600052603260045260246000fd5b60006001820161064c5761064c6105f5565b5060010190565b600181811c9082168061066757607f821691505b60208210810361068757634e487b7160e01b600052602260045260246000fd5b5091905056fea26469706673582212200d7f420f1fb9ec11db5579885e80a5494c4bc54a795432ce92e490d4947bc9cd64736f6c63430008100033",
    "sourcePath": "c:/Users/ashiq/OneDrive/Documents/GitHub/dapp-web3js-demo/contracts/attendence.sol",
    "compiler": {
        "name": "solc",
        "version": "0.8.16+commit.07a7930e"
    },
    "functionHashes": {
        "attendance_record(uint256)": "ce6a43a8",
        "attendee_list(uint256)": "8924b042",
        "check_attendance()": "f065081e",
        "check_attendance2(uint256)": "0a2cdcdf",
        "courseId()": "6e0f634b",
        "date()": "323046b1",
        "disable()": "2f2770db",
        "enable()": "a3907d71",
        "enabled()": "238dafe0",
        "give_attendance(uint256)": "67c784e1",
        "instructor()": "71ae413d",
        "total_attendance()": "fb19ae71"
    },
    "gasEstimates": {
        "creation": {
            "codeDepositCost": "346200",
            "executionCost": "infinite",
            "totalCost": "infinite"
        },
        "external": {
            "attendance_record(uint256)": "4641",
            "attendee_list(uint256)": "4636",
            "check_attendance()": "infinite",
            "check_attendance2(uint256)": "infinite",
            "courseId()": "infinite",
            "date()": "2362",
            "disable()": "26547",
            "enable()": "26552",
            "enabled()": "2322",
            "give_attendance(uint256)": "infinite",
            "instructor()": "2337",
            "total_attendance()": "2402"
        }
    }
}